:020000040800F2
:10000000000002205D190008B7180008BD1800089C
:10001000C3180008C9180008CF1800080000000025
:10002000000000000000000000000000D5180008DB
:10003000E318000800000000F1180008FF1800088D
:10004000AD190008AD190008AD190008AD19000878
:10005000AD190008AD190008AD190008AD19000868
:10006000AD190008AD190008AD190008AD19000858
:10007000AD190008AD190008AD190008AD19000848
:10008000AD190008AD190008AD190008AD19000838
:10009000AD190008AD190008AD190008AD19000828
:1000A000AD190008AD190008AD190008AD19000818
:1000B000AD190008AD190008AD190008AD19000808
:1000C000AD190008AD190008AD190008AD190008F8
:1000D000AD190008AD190008AD190008AD190008E8
:1000E000AD190008AD190008AD190008AD190008D8
:1000F000AD190008AD190008AD190008AD190008C8
:10010000AD190008AD190008AD190008AD190008B7
:10011000AD190008AD190008AD190008AD190008A7
:10012000AD190008AD190008AD190008AD19000897
:10013000AD1900080000000000000000AD19000823
:10014000AD190008AD190008AD190008AD19000877
:10015000AD190008AD190008AD190008AD19000867
:10016000AD190008AD190008AD190008AD19000857
:10017000AD190008AD190008AD1900080000000015
:1001800000000000AD1900080000000000000000A1
:10019000AD1900080000000000000000AD190008C3
:1001A000000000000000000000000000AD19000881
:1001B000AD190008AD190008AD190008AD19000807
:0401C000AD1900086D
:1001C4000348044B834202D0034B03B118477047E2
:1001D4000C0000200C000020000000000548064927
:1001E4000B1AD90F01EBA301491002D0034B03B141
:1001F400184770470C0000200C000020000000008D
:1002040010B5064C237843B9FFF7DAFF044B13B15A
:100214000448AFF300800123237010BD0C000020BC
:1002240000000000B019000808B5044B1BB10449D4
:100234000448AFF30080BDE80840CFE700000000A9
:1002440010000020B019000853B94AB9002908BFAA
:1002540000281CBF4FF0FF314FF0FF3000F074B99D
:10026400ADF1080C6DE904CE00F006F8DDF804E009
:10027400DDE9022304B070472DE9F047089D0446E8
:100284008E46002B4DD18A42944669D9B2FA82F245
:1002940052B101FA02F3C2F1200120FA01F10CFA81
:1002A40002FC41EA030E94404FEA1C48210CBEFBB9
:1002B400F8F61FFA8CF708FB16E341EA034306FB42
:1002C40007F199420AD91CEB030306F1FF3080F0D1
:1002D4001F81994240F21C81023E63445B1AA4B21E
:1002E400B3FBF8F008FB103344EA034400FB07F7C0
:1002F400A7420AD91CEB040400F1FF3380F00A8101
:10030400A74240F207816444023840EA0640E41BF5
:1003140000261DB1D4400023C5E900433146BDE8A1
:10032400F0878B4209D9002D00F0EF800026C5E943
:10033400000130463146BDE8F087B3FA83F6002E5B
:100344004AD18B4202D3824200F2F980841A61EBD3
:10035400030301209E46002DE0D0C5E9004EDDE7F1
:1003640002B9FFDEB2FA82F2002A40F09280A1EBD9
:100374000C014FEA1C471FFA8CFE0126200CB1FB2E
:10038400F7F307FB131140EA01410EFB03F0884227
:1003940008D91CEB010103F1FF3802D2884200F2B4
:1003A400CB804346091AA4B2B1FBF7F007FB101146
:1003B40044EA01440EFB00FEA64508D91CEB0404E4
:1003C40000F1FF3102D2A64500F2BB800846A4EB3F
:1003D4000E0440EA03409CE7C6F12007B34022FA2A
:1003E40007FC4CEA030C20FA07F401FA06F31C4359
:1003F400F9404FEA1C4900FA06F3B1FBF9F8200C66
:100404001FFA8CFE09FB181140EA014108FB0EF0AB
:10041400884202FA06F20BD91CEB010108F1FF3AFB
:1004240080F08880884240F28580A8F10208614407
:10043400091AA4B2B1FBF9F009FB101144EA014115
:1004440000FB0EFE8E4508D91CEB010100F1FF34C0
:100454006CD28E456AD90238614440EA0840A0FB58
:100464000294A1EB0E01A142C846A64656D353D02E
:100474005DB1B3EB080261EB0E0101FA07F722FA52
:1004840006F3F1401F43C5E9007100263146BDE87B
:10049400F087C2F12003D8400CFA02FC21FA03F3DE
:1004A400914001434FEA1C471FFA8CFEB3FBF7F05F
:1004B40007FB10360B0C43EA064300FB0EF69E4284
:1004C40004FA02F408D91CEB030300F1FF382FD21D
:1004D4009E422DD9023863449B1B89B2B3FBF7F6C5
:1004E40007FB163341EA034106FB0EF38B4208D99E
:1004F4001CEB010106F1FF3816D28B4214D9023EDF
:100504006144C91A46EA004638E72E46284605E7FC
:100514000646E3E61846F8E64B45A9D2B9EB0208CD
:1005240064EB0C0E0138A3E74646EAE7204694E75D
:100534004046D1E7D0467BE7023B614432E7304690
:1005440009E76444023842E7704700BF70B50D4EB6
:100554000D4D761BB61006D0002455F8043B01342B
:100564009847A642F9D1094E094D761B01F01EFAAF
:10057400B61006D0002455F8043B01349847A6422F
:10058400F9D170BDE0190008E0190008E419000869
:10059400E0190008830730B548D0541E002A3FD024
:1005A400CAB2034601E0013C3AD303F8012B9D078C
:1005B400F9D1032C2DD9CDB245EA05250F2C45EAF6
:1005C400054536D9A4F1100222F00F0C03F1200ED8
:1005D400E6444FEA121C03F1100242E9045542E9D1
:1005E400025510327245F8D10CF1010214F00C0FCF
:1005F40003EB021204F00F0C13D0ACF1040323F04C
:1006040003030433134442F8045B9342FBD10CF01C
:1006140003042CB1CAB21C4403F8012B9C42FBD145
:1006240030BD64461346002CF4D1F9E70346144662
:10063400BFE71A46A446E0E780B400AF064BD3F800
:100644008830054A43F47003C2F8883000BFBD46C1
:100654005DF8047B704700BF00ED00E080B584B016
:1006640000AF786039607B68002B01D10123CCE0B6
:10067400684B1B6803F00F033A689A420CD9654B28
:100684003A68D2B21A70634B1B6803F00F033A68DE
:100694009A4201D00123B8E07B681B6803F002038F
:1006A400002B20D07B681B6803F00403002B05D0CB
:1006B400594B9B68584A43F4E05393607B681B682A
:1006C40003F00803002B05D0534B9B68524A43F4B4
:1006D40060439360504B9B6823F0F0027B689B68F7
:1006E4004D4913438B607B681B6803F00103002BA7
:1006F40044D07B685B68012B07D1474B1B6803F42C
:100704000033002B19D101237FE07B685B68022B47
:1007140003D07B685B68032B07D13F4B1B6803F056
:100724000073002B09D101236FE03B4B1B6803F0DE
:100734000203002B01D1012367E0374B9B6823F0B0
:1007440003027B685B68344913438B6000F0C8FF85
:10075400F8600AE000F0C4FF0246FB68D31A41F2D5
:100764008832934201D903234FE02B4B9B6803F05B
:100774000C027B685B689B009A42EBD1254B1B689B
:1007840003F00F033A689A420CD2224B3A68D2B271
:100794001A70204B1B6803F00F033A689A4201D089
:1007A400012332E07B681B6803F00403002B08D0AC
:1007B400194B9B6823F4E0527B68DB6816491343AA
:1007C4008B607B681B6803F00803002B09D0124B75
:1007D4009B6823F460427B681B69DB000E4913436A
:1007E4008B6000F021F802460B4B9B681B0903F059
:1007F4000F030A49CB5C22FA03F3094A1360094B3D
:100804001B68184600F028FF002318461037BD4621
:1008140080BD00BF003C024000380240C8190008F7
:1008240000000020040000202DE9B04FA6B000AF66
:100834000023C7F88C300023C7F894300023C7F88E
:1008440088300023C7F884300023C7F89030C84BA1
:100854009B6803F00C030C2B00F27E8101A252F87A
:1008640023F000BF9D0800085D0B00085D0B000825
:100874005D0B0008A50800085D0B00085D0B00086F
:100884005D0B0008AD0800085D0B00085D0B000857
:100894005D0B0008170A0008B64BC7F890305FE1FB
:1008A400B54BC7F890305BE1B14B5B6803F03F0395
:1008B400C7F88C30AE4B5B6803F48003002B31D057
:1008C400AB4B5B689B090022BB66FA66BB6EC3F345
:1008D40008033B6600237B66A74BD7E918452A46E5
:1008E40003FB02F20023214601FB03F31344A24A53
:1008F4002146A1FB0212FA670A46BA67FA6F13444B
:10090400FB67D7F88C300022BB65FA65D7E916235C
:10091400D7E91E01FFF798FC02460B461346C7F8B9
:10092400943064E0924B5B689B0900223B657A65D6
:100934003B6DC3F30803BB640023FB64D7E9124592
:1009440022462B464FF000004FF00001590141EAC6
:10095400D261500102460B462146511A396129469B
:1009640063EB01037B614FF000024FF00003D7E912
:1009740004AB59468B01514643EA916351468A01BF
:100984005146B2EB0108594663EB01094FF00002EE
:100994004FF000034FEAC90343EA58734FEAC80211
:1009A40090469946234618EB0303BB602B4649EB5C
:1009B4000303FB604FF000024FF00003D7E9024548
:1009C40029468B02214643EA915321468A02104666
:1009D4001946D7F88C3000223B647A64D7E9102397
:1009E400FFF732FC02460B461346C7F89430604BBF
:1009F4005B681B0C03F0030301335B00C7F888300A
:100A0400D7F89420D7F88830B2FBF3F3C7F89030C6
:100A1400A6E0574B5B6803F03F03C7F88C30544B98
:100A24005B6803F48003002B2AD0514B5B689B095D
:100A34000022BB63FA63BB6BC3F3080000214E4B77
:100A440003FB01F2002300FB03F313444A4AA0FB17
:100A540002127A670A463A677A6F13447B67D7F8BB
:100A64008C3000223B637A63D7E90C23D7E91C015D
:100A7400FFF7EAFB02460B461346C7F894305BE0E7
:100A84003B4B5B689B090022BB62FA62BB6AC3F3FF
:100A940008033B6200237B62D7E9088942464B4640
:100AA4004FF000004FF00001590141EAD2615001BA
:100AB40002460B464146B2EB010A494663EB010B81
:100AC4004FF000024FF000034FEA8B1343EA9A639E
:100AD4004FEA8A12B2EB0A0463EB0B054FF00002F3
:100AE4004FF00003EB0043EA5473E20014461D4642
:100AF4004346E3183B604B4645EB03037B604FF0F2
:100B040000024FF00003D7E9004529468B02214635
:100B140043EA915321468A0210461946D7F88C308D
:100B24000022BB61FA61D7E90623FFF78DFB024679
:100B34000B461346C7F894300D4B5B681B0F03F04C
:100B44000703C7F88430D7F89420D7F88430B2FB71
:100B5400F3F3C7F8903003E0064BC7F8903000BFBA
:100B6400D7F8903018469837BD46BDE8B08F00BF1F
:100B7400003802400024F40040787D0180B586B03E
:100B840000AF78607B68002B01D101238DE27B6884
:100B94001B6803F00103002B00F08380944B9B68D7
:100BA40003F00C03042B19D0914B9B6803F00C0346
:100BB400082B06D18E4B5B6803F48003B3F5800FDA
:100BC4000CD08B4B9B6803F00C030C2B12D1884B7D
:100BD4005B6803F48003B3F5800F0BD1844B1B686F
:100BE40003F40033002B5BD07B685B68002B57D188
:100BF40001235AE27B685B68B3F5803F06D17C4BE6
:100C04001B687B4A43F4803313601DE07B685B6898
:100C1400B3F5A02F0CD1764B1B68754A43F480239F
:100C24001360734B1B68724A43F4803313600BE008
:100C34006F4B1B686E4A23F4803313606C4B1B6844
:100C44006B4A23F4802313607B685B68002B13D00A
:100C540000F046FD386108E000F042FD02463B69C1
:100C6400D31A642B01D903231FE2614B1B6803F4DD
:100C74000033002BF0D014E000F032FD386108E0BE
:100C840000F02EFD02463B69D31A642B01D90323DD
:100C94000BE2574B1B6803F40033002BF0D100E048
:100CA40000BF7B681B6803F00203002B6FD0504B1E
:100CB4009B6803F00C03002B17D04D4B9B6803F08B
:100CC4000C03082B05D14A4B5B6803F48003002B0B
:100CD4000BD0474B9B6803F00C030C2B1CD1444BEB
:100CE4005B6803F48003002B16D1414B1B6803F0AF
:100CF4000203002B05D07B68DB68012B01D00123A4
:100D0400D3E13B4B1B6823F0F8027B681B69DB00D3
:100D1400374913430B603AE07B68DB68002B20D033
:100D2400344B01221A6000F0DBFC386108E000F06B
:100D3400D7FC02463B69D31A022B01D90323B4E141
:100D44002B4B1B6803F00203002BF0D0284B1B68CD
:100D540023F0F8027B681B69DB00254913430B6011
:100D640015E0244B00221A6000F0BAFC386108E058
:100D740000F0B6FC02463B69D31A022B01D90323C7
:100D840093E11B4B1B6803F00203002BF0D17B683B
:100D94001B6803F00803002B36D07B685B69002BCB
:100DA40016D0154B01221A6000F09AFC386108E055
:100DB40000F096FC02463B69D31A022B01D90323A7
:100DC40073E10B4B5B6F03F00203002BF0D01BE0CD
:100DD400094B00221A6000F083FC38610EE000F039
:100DE4007FFC02463B69D31A022B07D903235CE13B
:100DF4000038024000004742800E47428A4B5B6F36
:100E040003F00203002BEAD17B681B6803F00403A0
:100E1400002B00F097800023FB75834B1B6C03F0C1
:100E24008053002B0FD10023BB607F4B1B6C7E4A89
:100E340043F0805313647C4B1B6C03F08053BB6002
:100E4400BB680123FB75794B1B6803F48073002B8B
:100E540018D1764B1B68754A43F48073136000F015
:100E64003FFC386108E000F03BFC02463B69D31AC2
:100E7400022B01D9032318E16C4B1B6803F4807324
:100E8400002BF0D07B689B68012B06D1664B1B6F4F
:100E9400654A43F0010313671CE07B689B68052BDC
:100EA4000CD1614B1B6F604A43F0040313675E4B24
:100EB4001B6F5D4A43F0010313670BE05A4B1B6F32
:100EC400594A23F001031367574B1B6F564A23F00B
:100ED400040313677B689B68002B15D000F000FCAB
:100EE40038610AE000F0FCFB02463B69D31A41F288
:100EF4008832934201D90323D7E04B4B1B6F03F095
:100F04000203002BEED014E000F0EAFB38610AE0A3
:100F140000F0E6FB02463B69D31A41F28832934261
:100F240001D90323C1E0404B1B6F03F00203002BE4
:100F3400EED1FB7D012B05D13B4B1B6C3A4A23F0D0
:100F4400805313647B689B69002B00F0AD80364BA3
:100F54009B6803F00C03082B60D07B689B69022B11
:100F640045D1334B00221A6000F0BAFB386108E027
:100F740000F0B6FB02463B69D31A022B01D90323C6
:100F840093E0294B1B6803F00073002BF0D17B68BE
:100F9400DA697B681B6A1A437B685B6A9B011A43A4
:100FA4007B689B6A5B08013B1B041A437B68DB6A12
:100FB4001B061A437B681B6B1B071B4913434B60BF
:100FC4001B4B01221A6000F08BFB386108E000F033
:100FD40087FB02463B69D31A022B01D9032364E041
:100FE400114B1B6803F00073002BF0D05CE0104B36
:100FF40000221A6000F074FB386108E000F070FB16
:1010040002463B69D31A022B01D903234DE0064B58
:101014001B6803F00073002BF0D145E07B689B69EB
:10102400012B07D1012340E000380240007000404A
:10103400600047421F4B5B68FB607B689B69012B28
:1010440030D0FB6803F480027B68DB699A4229D1C3
:10105400FB6803F03F027B681B6A9A4222D1FA685C
:1010640047F6C07313407A68526A9201934219D1C9
:10107400FB6803F440327B689B6A5B08013B1B04FA
:101084009A420FD1FB6803F070627B68DB6A1B062F
:101094009A4207D1FB6803F0E0427B681B6B1B0795
:1010A4009A4201D0012300E0002318461837BD46B8
:1010B40080BD00BF0038024080B489B000AF7860C2
:1010C400396000237B6100233B610023BB61002363
:1010D400FB6165E10122FB6902FA03F37B613B6872
:1010E4001B687A6913403B613A697B699A4240F014
:1010F40054813B685B6803F00303012B05D03B6814
:101104005B6803F00303022B30D17B689B68BB61EF
:10111400FB695B00032202FA03F3DB43BA69134061
:10112400BB613B68DA68FB695B0002FA03F3BA69E6
:101134001343BB617B68BA699A607B685B68BB6177
:101144000122FB6902FA03F3DB43BA691340BB6172
:101154003B685B681B0903F00102FB6902FA03F3B5
:10116400BA691343BB617B68BA695A603B685B68C0
:1011740003F00303032B17D07B68DB68BB61FB69B7
:101184005B00032202FA03F3DB43BA691340BB6139
:101194003B689A68FB695B0002FA03F3BA6913437C
:1011A400BB617B68BA69DA603B685B6803F0030380
:1011B400022B23D1FB69DA087B68083253F822300A
:1011C400BB61FB6903F007039B000F2202FA03F3E0
:1011D400DB43BA691340BB613B681A69FB6903F0DE
:1011E40007039B0002FA03F3BA691343BB61FB696B
:1011F400DA087B680832B96943F822107B681B68F7
:10120400BB61FB695B00032202FA03F3DB43BA69A7
:101214001340BB613B685B6803F00302FB695B003E
:1012240002FA03F3BA691343BB617B68BA691A60B3
:101234003B685B6803F44033002B00F0AE8000236E
:10124400FB605D4B5B6C5C4A43F4804353645A4BD4
:101254005B6C03F48043FB60FB68584AFB699B08A2
:10126400023352F82330BB61FB6903F003039B0094
:101274000F2202FA03F3DB43BA691340BB617B68B4
:101284004F4A934225D07B684E4A93421FD07B68D5
:101294004D4A934219D07B684C4A934213D07B68E1
:1012A4004B4A93420DD07B684A4A934207D07B68ED
:1012B400494A934201D106230CE007230AE005239F
:1012C40008E0042306E0032304E0022302E00123F0
:1012D40000E00023FA6902F0030292009340BA6925
:1012E4001343BB613549FB699B080233BA6941F872
:1012F40023203A4B9B68BB613B69DB43BA691340CB
:10130400BB613B685B6803F48013002B03D0BA69AC
:101314003B691343BB61314ABB6993602F4BDB6864
:10132400BB613B69DB43BA691340BB613B685B68E3
:1013340003F40013002B03D0BA693B691343BB6168
:10134400264ABB69D360254B5B68BB613B69DB43C1
:10135400BA691340BB613B685B6803F40033002B3C
:1013640003D0BA693B691343BB611C4ABB69536030
:101374001A4B1B68BB613B69DB43BA691340BB6111
:101384003B685B6803F48033002B03D0BA693B6984
:101394001343BB61114ABB691360FB690133FB61F1
:1013A400FB690F2B7FF696AE00BF00BF2437BD4606
:1013B4005DF8047B704700BF0038024000380140EC
:1013C400000002400004024000080240000C0240F9
:1013D400001002400014024000180240003C01408A
:1013E40080B483B000AF78600B467B8013467B707B
:1013F4007B78002B03D07A887B689A6103E07B8832
:101404001A047B689A6100BF0C37BD465DF8047B03
:10141400704780B485B000AF78600B467B807B68F2
:101424005B69FB607A88FB6813401A04FB68D94344
:101434007B880B401A437B689A6100BF1437BD4612
:101444005DF8047B7047000080B485B000AF78601D
:101454007B6803F00703FB600C4BDB68BB60BA6876
:101464004FF6FF031340BB60FB681A02BB681343CB
:1014740043F0BF6343F40033BB60044ABB68D360EA
:1014840000BF1437BD465DF8047B704700ED00E0F3
:1014940080B400AF044BDB681B0A03F00703184653
:1014A400BD465DF8047B704700ED00E080B483B076
:1014B40000AF03463960FB7197F90730002B0ADB54
:1014C4003B68DAB20C4997F907301201D2B20B44E7
:1014D40083F800230AE03B68DAB20849FB7903F099
:1014E4000F03043B1201D2B20B441A7600BF0C372F
:1014F400BD465DF8047B704700E100E000ED00E0CC
:1015040080B489B000AFF860B9607A60FB6803F01A
:101514000703FB61FB69C3F10703042B28BF042302
:10152400BB61FB690433062B02D9FB69033B00E072
:1015340000237B614FF0FF32BB6902FA03F3DA4305
:10154400BB681A407B699A404FF0FF317B6901FA0E
:1015540003F3D9437B680B40134318462437BD4635
:101564005DF8047B7047000080B582B000AF7860FE
:101574007B68013BB3F1807F01D301230FE00A4A6A
:101584007B68013B53600F214FF0FF30FFF78EFF64
:10159400054B00229A60044B07221A600023184668
:1015A4000837BD4680BD00BF10E000E080B582B0C2
:1015B40000AF78607868FFF747FF00BF0837BD4683
:1015C40080BD80B586B000AF0346B9607A60FB7316
:1015D40000237B61FFF75CFF78617A68B9687869FA
:1015E400FFF78EFF024697F90F3011461846FFF7B2
:1015F4005DFF00BF1837BD4680BD80B582B000AF27
:1016040078607868FFF7B0FF034618460837BD4690
:1016140080BD000080B500AF0E4B1B680D4A43F43B
:10162400007313600B4B1B680A4A43F48063136016
:10163400084B1B68074A43F4807313600320FFF7C9
:10164400B5FF0F2000F008F800F05EF900231846FB
:1016540080BD00BF003C024080B582B000AF78601E
:10166400124B1A68124B1B7819464FF47A73B3FB6A
:10167400F1F3B2FBF3F31846FFF7BFFF0346002B69
:1016840001D001230EE07B680F2B0AD80022796871
:101694004FF0FF30FFF795FF064A7B681360002385
:1016A40000E0012318460837BD4680BD0000002035
:1016B400080000200400002080B400AF064B1B7813
:1016C4001A46064B1B681344044A136000BFBD4608
:1016D4005DF8047B704700BF08000020280000204C
:1016E40080B400AF034B1B681846BD465DF8047B0D
:1016F400704700BF2800002080B584B000AF786038
:10170400FFF7EEFFB8607B68FB60FB68B3F1FF3F57
:1017140005D00A4B1B781A46FB681344FB6000BFD4
:10172400FFF7DEFF0246BB68D31AFA689A42F7D87D
:1017340000BF00BF1037BD4680BD00BF08000020B9
:1017440080B500AFFFF766FF00F00CF800F06AF810
:1017540020210348FFF75DFEC820FFF7CDFFF7E720
:101764000000024080B594B000AF07F11C0334229E
:1017740000211846FEF70EFF07F1080300221A6045
:101784005A609A60DA601A6100237B60234B1B6CF9
:10179400224A43F080531364204B1B6C03F08053A4
:1017A4007B607B6800233B601D4B1B6823F4404334
:1017B4001B4A43F480431360194B1B6803F44043F2
:1017C4003B603B680223FB610123BB621023FB6285
:1017D40000237B6307F11C031846FFF7CFF9034688
:1017E400002B01D000F060F80F23BB600023FB60E6
:1017F40000233B6100237B610023BB6107F10803E5
:1018040000211846FEF72AFF0346002B01D000F002
:101814004BF800BF5037BD4680BD00BF00380240C2
:101824000070004080B588B000AF07F10C030022BF
:101834001A605A609A60DA601A610023BB60184B20
:101844001B6B174A43F080031363154B1B6B03F0A8
:101854008003BB60BB6800237B60114B1B6B104A89
:1018640043F0010313630E4B1B6B03F001037B6016
:101874007B68002220210B48FFF7B2FD2023FB6088
:1018840001233B6100237B610023BB6107F10C034F
:1018940019460448FFF710FC00BF2037BD4680BD41
:1018A400003802400000024080B400AF72B600BFAE
:1018B400FEE780B400AFFEE780B400AFFEE780B47B
:1018C40000AFFEE780B400AFFEE780B400AFFEE7F0
:1018D40080B400AF00BFBD465DF8047B704780B4A0
:1018E40000AF00BFBD465DF8047B704780B400AF15
:1018F40000BFBD465DF8047B704780B500AFFFF7BD
:10190400DBFE00BF80BD000080B483B000AF0023C5
:101914007B60104B5B6C0F4A43F4804353640D4B64
:101924005B6C03F480437B607B6800233B60094B62
:101934001B6C084A43F080531364064B1B6C03F082
:1019440080533B603B6800BF0C37BD465DF8047BA9
:10195400704700BF00380240DFF834D0FEF76CFE59
:101964000C480D490D4A002302E0D458C4500433F6
:10197400C4188C42F9D30A4A0A4C002301E01360CC
:101984000432A242FBD3FEF7E1FDFFF7D9FE704714
:1019940000000220000000200C000020E8190008CC
:1019A4000C0000202C000020FEE70000F8B500BF6A
:1019B400F8BC08BC9E467047F8B500BFF8BC08BC2C
:0419C4009E46704784
:1019C80000000000000000000102030406070809E7
:0819D800A4E8FF7F01000000FC
:0419E0002D020008CC
:0419E40005020008F0
:0C19E8000024F4001000000001000000CA
:040000050800195D79
:00000001FF
